:1000000005308A00EC2D0000FF00030E8301A100E3
:100010000A08A0008A010408A2007708A300780853
:10002000A4007908A5007A08A60003170D08031399
:10003000A70003170F080313A80003170C080313E6
:10004000A90003170E080313AA00831383120B1EC3
:100050002B288B184C28220884002308F70024083A
:10006000F8002508F9002608FA00270803178D0074
:100070000313280803178F000313290803178C00A4
:1000800003132A0803178E00031320088A00210E89
:100090008300FF0E7F0E09008A110A122F2A831691
:1000A0000910891009118312891083168910061608
:1000B0008616061786178312091583160911000084
:1000C000831209148316091000008312C8018316D5
:1000D000061600308312061A0130C80483168616ED
:1000E00000308312861A0130F7000310F70D7708ED
:1000F000C8048316061700308312061B0130F70070
:10010000F70DF70DFC30F7057708C804831686173E
:1001100000308312861B0130F700F70DF70DF70D45
:10012000F830F7057708C8044808F8007808C700D1
:100130000910831609100000831209148316091090
:1001400000008312C8018316061600308312061AB7
:100150000130C8048316861600308312861A0130D7
:10016000F7000310F70D7708C80483160617003050
:100170008312061B0130F700F70DF70DFC30F70571
:100180007708C8048316861700308312861B013057
:10019000F700F70DF70DF70DF830F7057708C804ED
:1001A0004808F8007808C6000910831609100612DE
:1001B0008612061386138312470EF700F030F705F8
:1001C00077084604F8007808C600C61FE928831699
:1001D0005728C408031DEE288910EF2889148316B8
:1001E000891000008312091183160911000083127F
:1001F0000910831609108312450EC6000F30C6057C
:100200004608C7004718062906120729061683164E
:1002100006128312C7180E2986120F298616831616
:1002200086128312471916290613172906178316F3
:1002300006138312C7191E2986131F2986178316D2
:1002400086130000831209148316091027298312CC
:10025000091083160910831245080F39C600460895
:10026000C7004718352906123629061683160612C6
:100270008312C7183D2986123E29861683168612D8
:1002800083124719452906134629061783160613B4
:100290008312C7194D2986134E2986178316861394
:1002A00000008312091483160910562983120910BD
:1002B0008316091083120800410B5F296229403020
:1002C000C2006329C20101304002C20742088038DF
:1002D000C300C4014308C5004F200800403084001B
:1002E00083130008031982290130F800F701F70B86
:1002F0007729F80B76294A30F700F70B7D298029FA
:10030000800B742908000B08BC008B13831603179D
:100310008C170C140000000083120313BC1B8B17F6
:1003200003170C087F3903192D2A0313BC00031788
:100330000D080313BD0003170F080313BE003C088C
:10034000BF003F08073A0319AF290B3A0319B42934
:10035000063A0319BC29023A0319C229C7290130F8
:10036000C000C1005C21CD29C4010130C5004F206F
:100370000230C0006E21CD290130C0000230C10022
:100380005C21CD29C4011030C5004F20CD2901309A
:10039000C4003F08C5004F20CD293D0803178D003C
:1003A00003133E0803178F0003130B08BF008B13C2
:1003B000831603178C170C1400000000831203131C
:1003C000BF1B8B1703170C0D0E0D7F3903192D2A38
:1003D0000313BC0003170D080313BD0003170F0818
:1003E0000313BE003C08BF003F08073A0319022A66
:1003F0000B3A0319072A063A03190F2A023A03197E
:10040000152A1A2A0130C000C1005C21202AC4012B
:100410000130C5004F200230C0006E21202A01307B
:10042000C0000230C1005C21202AC4011030C50088
:100430004F20202A0130C4003F08C5004F20202A49
:100440003D0803178D0003133E0803178F008D0A24
:1004500003198F0A031383290317031308000130BC
:10046000AC00AD010F308316860000308800831287
:1004700088015B3003178D0002308F000313832146
:100480000230C0000130C1005C210430BC00FA30F1
:10049000C0006E21BC0B472A653003178D00023067
:1004A0008F00031383210230C000C1005C218B1038
:1004B0008A110A122B280C2BC920CA22D32FD42A26
:1004C000D224532AC921CF290A008A377039E93644
:1004D0006114D324C7146F144127D4140A008C214B
:1004E000EF36703961392038E1396135651D000119
:1004F00029053117C330723AE133653761050001D0
:100500008C21EF36703961392038E1396135651D4C
:1005100000010A19AE296137F430A0266139F430A0
:100520000A008C21EF36703961392038E1396135A4
:10053000651D00018A19AE2665326536EC346E05FC
:1005400000018A21EF36703961392038E13961358F
:10055000651D00010A1A2E21EF336F3A6105000173
:100560008A21EF36703961392038E1396135651DEE
:1005700000018A1AAE216136690500018A21EF3631
:10058000703961392038E1396135651D00010A1B78
:10059000AE266536E730720500018A21EF367039E4
:1005A00061392038E1396135651D00018A1B2E2B28
:1005B0006936EC32F4300A008A21EF36703961393D
:1005C0002038E1396135651D00010A1CAE2961370B
:1005D000A0206E32F232730500008C21CF26502904
:1005E00041224F000A10C23A6537203BE930EA3217
:1005F00000010A104F38F234ED30A030E438F53401
:10060000F23472008C21CF26502941224F000A106B
:10061000C23A6537203BE930EA3200010A104F3810
:10062000F234ED30A030E438F534F23472008C212D
:10063000CF26502941224F000A10C23A6537203B8D
:10064000E930EA3200010A104F38F234ED30A030C0
:10065000E438F534F23472008C21CF26502941223F
:100660004F000A10C23A6537203BE930EA320001F8
:100670000A104F38F234ED30A030E438F534F2345B
:1006800072008C21CF26502941224F000A10C23A15
:100690006537203BE930EA3200010A104F38F23466
:1006A000ED30A030E438F534F23472008C21CF26DE
:1006B000502941224F000A10C23A6537203BE930E9
:1006C000EA3200010A104F38F234ED30A030E4383D
:1006D000F534F23472008C21CF26502941224F008C
:1006E0000A10C23A6537203BE930EA3200010A10AD
:1006F0004F38F234ED30A030E438F534F234720083
:100700008C21CF26502941224F000A10C23A65376A
:10071000203BE930EA3200010A104F38F234ED3064
:10072000A030E438F534F23472002830AF000C30D9
:10073000B0000130B1000630B20009108316091074
:1007400083128910831689108312091183160911E7
:1007500006128612061386130910891009118312D6
:10076000AB018B1BAB178B130F30C0006E21AB1B83
:100770008B170130AE002E08033C031CF62B033010
:10078000C7004718C52B0612C62B0616831606127D
:100790008312C718CD2B8612CE2B8616831686128F
:1007A00083124719D52B0613D62B0617831606136B
:1007B0008312C719DD2B8613DE2B8617831686134B
:1007C00000008312091483160910E62B8312091006
:1007D000831609108312AB018B1BAB178B130530EB
:1007E000C0006E21AB1B8B17AE0ABB2B0230C700BB
:1007F0004718FC2B0612FD2B0616831606128312D1
:10080000C718042C8612052C8616831686128312AE
:1008100047190C2C06130D2C06178316061383128A
:10082000C719142C8613152C8617831686130000FF
:1008300083120914831609101D2C831209108316C4
:1008400009108312AB018B1BAB178B130530C00053
:100850006E21AB1B8B17AE012E08033C031C422CF0
:100860002F302E07840083130008B300AB018B1BCD
:10087000AB178B13C4013308C5004F20AB1B8B177C
:10088000AE0A2C2C8A110A12FE2D2D0B782C013069
:1008900088006F3003178D0002308F000313AB0107
:1008A0008B1BAB178B138321AB1B8B17AB018B1BE4
:1008B000AB178B130230C0000130C1005C21AB1BB1
:1008C0008B17783003178D0002308F000313AB01B4
:1008D0008B1BAB178B138321AB1B8B17AB018B1BB4
:1008E000AB178B130230C000C1005C21AB1B8B1710
:1008F0002D08023C031DAD2C023088008030031708
:100900008D0002308F000313AB018B1BAB178B13D1
:100910008321AB1B8B17AB018B1BAB178B130230E7
:10092000C0000130C1005C21AB1B8B17893003175D
:100930008D0002308F000313AB018B1BAB178B13A1
:100940008321AB1B8B17AB018B1BAB178B130230B7
:10095000C000C1005C21AB1B8B172D08033C031D9D
:10096000E22C04308800913003178D0002308F0094
:100970000313AB018B1BAB178B138321AB1B8B17A3
:10098000AB018B1BAB178B130230C0000130C100D1
:100990005C21AB1B8B179A3003178D0002308F0040
:1009A0000313AB018B1BAB178B138321AB1B8B1773
:1009B000AB018B1BAB178B130230C000C1005C2155
:1009C000AB1B8B172D08043C031D172D0830880026
:1009D000A13003178D0002308F000313AB018B1B76
:1009E000AB178B138321AB1B8B17AB018B1BAB1787
:1009F0008B130230C0000130C1005C21AB1B8B1790
:100A0000AA3003178D0002308F000313AB018B1B3C
:100A1000AB178B138321AB1B8B17AB018B1BAB1756
:100A20008B130230C000C1005C21AB1B8B172D085B
:100A3000053C031D4C2D10308800B03003178D008D
:100A400002308F000313AB018B1BAB178B13832179
:100A5000AB1B8B17AB018B1BAB178B130230C0008A
:100A60000130C1005C21AB1B8B17B93003178D001F
:100A700002308F000313AB018B1BAB178B13832149
:100A8000AB1B8B17AB018B1BAB178B130230C0005A
:100A9000C1005C21AB1B8B172D08063C031D812D6B
:100AA00020308800BE3003178D0002308F00031302
:100AB000AB018B1BAB178B138321AB1B8B17AB01CC
:100AC0008B1BAB178B130230C0000130C1005C21BF
:100AD000AB1B8B17C73003178D0002308F00031339
:100AE000AB018B1BAB178B138321AB1B8B17AB019C
:100AF0008B1BAB178B130230C000C1005C21AB1BFA
:100B00008B172D08073C031DB62D40308800CD30D3
:100B100003178D0002308F000313AB018B1BAB1743
:100B20008B138321AB1B8B17AB018B1BAB178B1369
:100B30000230C0000130C1005C21AB1B8B17D630E6
:100B400003178D0002308F000313AB018B1BAB1713
:100B50008B138321AB1B8B17AB018B1BAB178B1339
:100B60000230C000C1005C21AB1B8B172D08083C74
:100B7000031DEB2D80308800DC3003178D00023020
:100B80008F000313AB018B1BAB178B138321AB1BA4
:100B90008B17AB018B1BAB178B130230C0000130DE
:100BA000C1005C21AB1B8B17E53003178D000230B1
:100BB0008F000313AB018B1BAB178B138321AB1B74
:100BC0008B17AB018B1BAB178B130230C000C1001E
:100BD0005C21AB1B8B17080003081F398300AC0195
:100BE000AD0183161F149F141F159F1107309C0021
:100BF000831383120B16C0308B04952B2C0B322ED3
:100C00008316861483128618122E83168614831276
:100C1000861C052EAD0A2D08073C0318112E08303E
:100C2000AD0045248316061583120619242E83165B
:100C300006158312061D172EAD032D08013C031C5B
:100C4000232E0130AD0045248316861583128619A4
:100C5000312E831686158312861D292E8A150028AB
:080C60008A11FE2DFE2D630038
:101000002D0B8628013088000230AE00AB018B1B0F
:10101000AB178B13FA30C0008A116E218A15AB1BF7
:101020008B17AE0B062888010230AE00AB018B1B7C
:10103000AB178B13FA30C0008A116E218A15AB1BD7
:101040008B17AE0B1628ED3003178D0002308F0082
:101050000313AB018B1BAB178B138A1183218A15EA
:10106000AB1B8B17AB018B1BAB178B130230C00074
:101070000130C1008A115C218A15AB1B8B17F2303D
:1010800003178D0002308F000313AB018B1BAB17CE
:101090008B138A1183218A15AB1B8B17AB018B1B1A
:1010A000AB178B130230C000C1008A115C218A1576
:1010B000AB1B8B170830AE00AB018B1BAB178B1330
:1010C000FA30C0008A116E218A15AB1B8B17AE0B4C
:1010D0005C28F93003178D0002308F000313AB0139
:1010E0008B1BAB178B138A1183218A15AB1B8B17B4
:1010F000AB018B1BAB178B130230C0000130C1005A
:101100008A115C218A15AB1B8B1700282D08023C25
:10111000031D0D2902308800AE00AB018B1BAB17FD
:101120008B13FA30C0008A116E218A15AB1B8B1706
:10113000AE0B8D2888010230AE00AB018B1BAB17C4
:101140008B13FA30C0008A116E218A15AB1B8B17E6
:10115000AE0B9D28023003178D0003308F00031360
:10116000AB018B1BAB178B138A1183218A15AB1B29
:101170008B17AB018B1BAB178B130230C0000130F8
:10118000C1008A115C218A15AB1B8B17073003172E
:101190008D0003308F000313AB018B1BAB178B1338
:1011A0008A1183218A15AB1B8B17AB018B1BAB17E5
:1011B0008B130230C000C1008A115C218A15AB1B61
:1011C0008B170830AE00AB018B1BAB178B13FA30BB
:1011D000C0008A116E218A15AB1B8B17AE0BE3285A
:1011E0000E3003178D0003308F000313AB018B1BF0
:1011F000AB178B138A1183218A15AB1B8B17AB019D
:101200008B1BAB178B130230C0000130C1008A1159
:101210005C218A15AB1B8B1786282D08033C031D08
:101220009529043088000230AE00AB018B1BAB1750
:101230008B13FA30C0008A116E218A15AB1B8B17F5
:10124000AE0B152988010230AE00AB018B1BAB172A
:101250008B13FA30C0008A116E218A15AB1B8B17D5
:10126000AE0B2529173003178D0003308F000313B1
:10127000AB018B1BAB178B138A1183218A15AB1B18
:101280008B17AB018B1BAB178B130230C0000130E7
:10129000C1008A115C218A15AB1B8B171C30031708
:1012A0008D0003308F000313AB018B1BAB178B1327
:1012B0008A1183218A15AB1B8B17AB018B1BAB17D4
:1012C0008B130230C000C1008A115C218A15AB1B50
:1012D0008B170830AE00AB018B1BAB178B13FA30AA
:1012E000C0008A116E218A15AB1B8B17AE0B6B29C0
:1012F000233003178D0003308F000313AB018B1BCA
:10130000AB178B138A1183218A15AB1B8B17AB018B
:101310008B1BAB178B130230C0000130C1008A1148
:101320005C218A15AB1B8B170D292D08043C031D6E
:101330001D2A083088000230AE00AB018B1BAB17B2
:101340008B13FA30C0008A116E218A15AB1B8B17E4
:10135000AE0B9D2988010230AE00AB018B1BAB1791
:101360008B13FA30C0008A116E218A15AB1B8B17C4
:10137000AE0BAD292C3003178D0003308F00031303
:10138000AB018B1BAB178B138A1183218A15AB1B07
:101390008B17AB018B1BAB178B130230C0000130D6
:1013A000C1008A115C218A15AB1B8B1731300317E2
:1013B0008D0003308F000313AB018B1BAB178B1316
:1013C0008A1183218A15AB1B8B17AB018B1BAB17C3
:1013D0008B130230C000C1008A115C218A15AB1B3F
:1013E0008B170830AE00AB018B1BAB178B13FA3099
:1013F000C0008A116E218A15AB1B8B17AE0BF32927
:10140000383003178D0003308F000313AB018B1BA3
:10141000AB178B138A1183218A15AB1B8B17AB017A
:101420008B1BAB178B130230C0000130C1008A1137
:101430005C218A15AB1B8B1795292D08053C031DD4
:10144000A52A103088000230AE00AB018B1BAB1711
:101450008B13FA30C0008A116E218A15AB1B8B17D3
:10146000AE0B252A88010230AE00AB018B1BAB17F7
:101470008B13FA30C0008A116E218A15AB1B8B17B3
:10148000AE0B352A413003178D0003308F00031354
:10149000AB018B1BAB178B138A1183218A15AB1BF6
:1014A0008B17AB018B1BAB178B130230C0000130C5
:1014B000C1008A115C218A15AB1B8B1746300317BC
:1014C0008D0003308F000313AB018B1BAB178B1305
:1014D0008A1183218A15AB1B8B17AB018B1BAB17B2
:1014E0008B130230C000C1008A115C218A15AB1B2E
:1014F0008B170830AE00AB018B1BAB178B13FA3088
:10150000C0008A116E218A15AB1B8B17AE0B7B2A8C
:101510004D3003178D0003308F000313AB018B1B7D
:10152000AB178B138A1183218A15AB1B8B17AB0169
:101530008B1BAB178B130230C0000130C1008A1126
:101540005C218A15AB1B8B171D2A2D08063C031D39
:101550002D2B203088000230AE00AB018B1BAB1767
:101560008B13FA30C0008A116E218A15AB1B8B17C2
:10157000AE0BAD2A88010230AE00AB018B1BAB175E
:101580008B13FA30C0008A116E218A15AB1B8B17A2
:10159000AE0BBD2A563003178D0003308F000313A6
:1015A000AB018B1BAB178B138A1183218A15AB1BE5
:1015B0008B17AB018B1BAB178B130230C0000130B4
:1015C000C1008A115C218A15AB1B8B175B30031796
:1015D0008D0003308F000313AB018B1BAB178B13F4
:1015E0008A1183218A15AB1B8B17AB018B1BAB17A1
:1015F0008B130230C000C1008A115C218A15AB1B1D
:101600008B170830AE00AB018B1BAB178B13FA3076
:10161000C0008A116E218A15AB1B8B17AE0B032BF2
:10162000623003178D0003308F000313AB018B1B57
:10163000AB178B138A1183218A15AB1B8B17AB0158
:101640008B1BAB178B130230C0000130C1008A1115
:101650005C218A15AB1B8B17A52A2D08073C031D9F
:10166000B52B403088000230AE00AB018B1BAB17AE
:101670008B13FA30C0008A116E218A15AB1B8B17B1
:10168000AE0B352B88010230AE00AB018B1BAB17C4
:101690008B13FA30C0008A116E218A15AB1B8B1791
:1016A000AE0B452B6B3003178D0003308F000313F7
:1016B000AB018B1BAB178B138A1183218A15AB1BD4
:1016C0008B17AB018B1BAB178B130230C0000130A3
:1016D000C1008A115C218A15AB1B8B177030031770
:1016E0008D0003308F000313AB018B1BAB178B13E3
:1016F0008A1183218A15AB1B8B17AB018B1BAB1790
:101700008B130230C000C1008A115C218A15AB1B0B
:101710008B170830AE00AB018B1BAB178B13FA3065
:10172000C0008A116E218A15AB1B8B17AE0B8B2B59
:10173000773003178D0003308F000313AB018B1B31
:10174000AB178B138A1183218A15AB1B8B17AB0147
:101750008B1BAB178B130230C0000130C1008A1104
:101760005C218A15AB1B8B172D2B2D08083C031D04
:101770003D2C803088000230AE00AB018B1BAB17D4
:101780008B13FA30C0008A116E218A15AB1B8B17A0
:10179000AE0BBD2B88010230AE00AB018B1BAB172B
:1017A0008B13FA30C0008A116E218A15AB1B8B1780
:1017B000AE0BCD2B803003178D0003308F00031349
:1017C000AB018B1BAB178B138A1183218A15AB1BC3
:1017D0008B17AB018B1BAB178B130230C000013092
:1017E000C1008A115C218A15AB1B8B17853003174A
:1017F0008D0003308F000313AB018B1BAB178B13D2
:101800008A1183218A15AB1B8B17AB018B1BAB177E
:101810008B130230C000C1008A115C218A15AB1BFA
:101820008B170830AE00AB018B1BAB178B13FA3054
:10183000C0008A116E218A15AB1B8B17AE0B132CBF
:101840008C3003178D0003308F000313AB018B1B0B
:10185000AB178B138A1183218A15AB1B8B17AB0136
:101860008B1BAB178B130230C0000130C1008A11F3
:101870005C218A15AB1B8B17B52B8A110A12302EEF
:02400E00313F40
:00000001FF
;PIC16F877A
;CRC=2915  CREATED="12-mar.-22 20:38"
